:02000002D0002C
:1040000000400D00E85E0D00000006000C000501F8
:084010000401DB0700000000C1
:044018007C5C0D00BF
:10401C0009480A49884208B505D0094A824202D0AB
:10402C00121A01F0C5FD0748074A0021121A01F0C7
:10403C00CDFD014808BD00BFC4E60320545E0D0051
:10404C0030E7032030E70320F0E7032070B5074E7C
:10405C00074C00F039FDA41BA4080025A54200D193
:10406C0070BD56F8043B98470135F7E72C5E0D0000
:10407C00505E0D0000F024B808B500F06DF8BDE8F6
:10408C00084000F0E3BC00F0A5BA00F0A3BA00F0C1
:10409C00A9BA0078B0FA80F0400970470123037088
:1040AC007047000013B5054B1B788DF800303C238E
:1040BC00044600F061FE204602B010BD34E7032038
:1040CC0008B50121022001F0CFFA0021032001F0F4
:1040DC00CBFABDE808400021022001F0D6BA01213C
:1040EC0010B5022001F0D1FA0A2000F0EFF80021FF
:1040FC00022001F0CAFA032001F0E0FA0028FAD0FD
:10410C0000F0ECF80446032001F0D8FA0128FAD0AC
:10411C0000F0E4F83A23001BB0FBF3F001F070FC64
:10412C0001F0E8FC00EE100A10BD38B50468054635
:10413C007CB16368013B63605BB9236820469B6874
:10414C009847A368013BA3601BB923682046DB6832
:10415C009847284638BD000070B52DED028B86B00F
:10416C00FFF7BDFF10EE100AB0EE408A01F06AFCBA
:10417C00DFED2E7A2E4B2F4CB4EEE78AF1EE10FACF
:10418C00C3E9000104DB2368132BDCBF013323607C
:10419C002368294D142B34D1B4EEE78A0022F1EEBA
:1041AC0010FA2A7005D8013B236023680BB9012350
:1041BC002B70224E2A783178914208D04ABB02A843
:1041CC001F4A2049FFF76EFF03A8FFF7AEFF2168D7
:1041DC000A2202A800F053FB029A1B496846FFF71B
:1041EC0061FF01A8FFF7A1FF02A800F0EBFA2B7802
:1041FC0033704FF4FA6000F0D5FB06B0BDEC028BC7
:10420C0070BDB4EEE78AF1EE10FACED8002BCCDDFF
:10421C00C9E70E4A0B4902A8FFF744FF03A8FFF7B2
:10422C0084FF2B78002BD2D1C9E700BF0000C84215
:10423C0038E70320C4E6032035E7032040E70320DA
:10424C00905C0D00965C0D00A35C0D009E5C0D0057
:10425C00014B00221A70704734E7032008B5024B5B
:10426C001B689B68019308BD6802030008B5024BEC
:10427C001B68DB68019308BD6802030008B5024B9C
:10428C001B689B68019308BD2C02030008B5024B08
:10429C001B68DB68019308BD2C02030008B5024BB8
:1042AC001B681B69019308BD2C02030008B5024B67
:1042BC001B685B69019308BD2C02030008B5024B17
:1042CC001B685B68019308BD1802030008B5024B1C
:1042DC001B68DB68019308BD1802030008B5024B8C
:1042EC001B681B69019308BD1802030008B5024B3B
:1042FC001B685B69019308BD1802030008B5024BEB
:10430C001B685B6C019308BD4802030008B5024BA7
:10431C001B689B6C019308BD4802030008B5024B57
:10432C001B685B69019308BD6402030008B5024B6E
:10433C001B681B68019308BD3C02030008B5024BC7
:10434C001B68DB68019308BD3C02030008B5024BF7
:10435C001B681B69019308BD3C02030008B5024BA6
:10436C001B685B69019308BD3C02030008B5024B56
:10437C001B689B69019308BD3C02030008B5024B06
:10438C001B68DB69019308BD3C02030008B5024BB6
:10439C001B681B6A019308BD3C02030008B5024B65
:1043AC001B689B6A019308BD3C02030008B5024BD5
:1043BC001B681B6A019308BD2802030008B5024B59
:1043CC001B685B6A019308BD2802030008B5024B09
:1043DC001B689B6A019308BD2802030008B5024BB9
:1043EC001B68DB6A019308BD2802030008B5024B69
:1043FC001B681B6B019308BD2802030008B5024B18
:10440C001B685B6B019308BD2802030008B5024BC7
:10441C001B681B6C019308BD2802030008B5024BF6
:10442C001B68DB69019308BD3002030008B5024B21
:10443C001B681B6A019308BD3002030008B5024BD0
:10444C001B681B68019308BD4C02030008B5024BA6
:10445C001B681B69019308BD4C02030008B5024B95
:10446C001B685B69019308BD4C02030008B5024B45
:10447C001B689B69019308BD4C02030008B5024BF5
:10448C001B68DB69019308BD4C02030008B5024BA5
:10449C001B681B6A019308BD4C02030008B5024B54
:1044AC001B685B68019308BD2002030008B5024B32
:1044BC001B685B69019308BD2002030008B5024B21
:1044CC001B68DB6C019308BD2002030008B5024B8E
:1044DC001B685B6D019308BD2002030008B5034BFC
:1044EC001B68D3F88830019308BD0000200203003C
:1044FC0008B5034B1B68D3F89430019308BD00003A
:10450C002002030008B5024B1B685B68019308BDD1
:10451C004002030008B5024B1B689B68019308BD61
:10452C004002030008B5024B1B68DB68019308BD11
:10453C004002030008B5024B1B681B69019308BDC0
:10454C004002030008B5024B1B685B69019308BD70
:10455C004002030008B5024B1B689B69019308BD20
:10456C004002030008B5024B1B68DB69019308BDD0
:10457C004002030008B5024B1B681B6A019308BD7F
:10458C004002030008B5024B1B681B6B019308BD6E
:10459C004002030008B5024B1B685B6B019308BD1E
:1045AC004002030008B5024B1B685B69019308BD10
:1045BC004402030008B5024B1B681B6A019308BD3B
:1045CC004402030008B5024B1B68DB6B019308BD6A
:1045DC004402030008B5024B1B681B68019308BD1D
:1045EC001C02030008B5024B1B685B68019308BDF5
:1045FC001C02030008B5024B1B689B68019308BDA5
:10460C001C02030008B5024B1B68DB6A019308BD52
:10461C001C02030008B5024B1B681B6B019308BD01
:10462C001C02030008B5024B1B685B6C019308BDB0
:10463C001C020300002240681146FFF79BBF0022BA
:10464C0040681146FFF7A6BF40680022FFF79ABFEB
:10465C004068002281F00101FFF784BF002340680D
:10466C001A461946FFF776BF002340681A461946CA
:10467C00FFF768BF002240681146FFF75BBF0022BE
:10468C0040681146FFF746BF406800220221FFF741
:10469C0049BF002340681A46FFF734BF024B032280
:1046AC005A60024A1A60704744E70320BC5C0D0054
:1046BC0010B5044608462170FFF7B0FE0023636076
:1046CC00204610BD10B50446006818B1FFF78AFFEC
:1046DC000023236010BD10B50446FFF7F3FF2046FE
:1046EC0010BD000010B5094B094C022200201A60C5
:1046FC00084B2060A080A071A360FFF7CFFE20467E
:10470C00054A0649BDE8104001F02CB858E70320D3
:10471C004CE703200000FFFF30E70320E3460D00C9
:10472C0010B5044601F09BFA013823182046834249
:10473C0006D90278197800F8011B03F80129F6E76D
:10474C0010BD70B50C46911E2229054622D8204674
:10475C006DB1B5FBF2F602FB1655E9B2092D94BF0B
:10476C0030315731C9B200F8011B3546F0E702462B
:10477C0023443021934202D902F8011BFAE71A1A9A
:10478C00834238BF0022002383542046FFF7C8FF22
:10479C00204670BD0020FCE738B5031E0C461546BC
:1047AC000EDAB3F1004F4FF02D0214BF58421846E9
:1047BC0001230A702A461944FFF7C3FF204638BD6F
:1047CC000123F9E710B504460068FFF70BFF2046FC
:1047DC0010BD10B50446006808B1FFF703FF0023B5
:1047EC00C4E90133236010BD38B504460D4600689A
:1047FC000131FFF7FFFE10B1C4E90005012038BDFF
:10480C0010B50368044623B143688B4201D30120E1
:10481C0010BD2046FFF7E8FF0028F9D0A368002B55
:10482C00F5D122681370F2E737B50D4611460192A7
:10483C000446FFF7E5FF019A28B92046FFF7C9FFA8
:10484C00204603B030BDA2602946206801F0B0F9C3
:10485C002268A3680021D154F2E713B5044659B17C
:10486C000846019101F0FBF9019902462046FFF739
:10487C00DBFF204602B010BDFFF7ABFFF9E710B528
:10488C0004468AB00023C4E90033A36023730846AE
:10489C0001A9FFF781FF01A92046FFF7DEFF2046A3
:1048AC000AB010BD10B50446006808B1FFF72EFD24
:1048BC00204610BD0B68036013B15A6801325A6070
:1048CC007047000010B5064C002320462360FFF70C
:1048DC0015FD2046034A0449BDE8104000F042BFD4
:1048EC005CE7032030E70320B1480D00F8B506461D
:1048FC000D468F180024BD420CD0336815F8011BEF
:10490C009B6830469847031E01DB1C44F3E7002CE0
:10491C0008BF1C462046F8BD13B50446084659B1DD
:10492C00019101F09CF923680199DB68024620464D
:10493C0002B0BDE81040184702B010BD03689B6878
:10494C00184730B58BB000238DF82430012A98BF5E
:10495C000A2209AC0D46B1FBF2F101FB125303F034
:10496C00FF03092B94BF30333733DBB2AA4204F870
:10497C00013DEFD92146FFF7CFFF0BB030BD000052
:10498C00014B024A1A60704760E70320E85C0D0097
:10499C00024B1A68024B1A60704700BFC8E603202E
:1049AC0064E703200021FFF781BD10B5836804463E
:1049BC0013B1032201469847204610BD10B504469A
:1049CC00FFF7F3FF204610BD13B50B460246D0E9A6
:1049DC0000016C4684E8030093E8030082E80300BE
:1049EC0094E8030083E8030002B010BD0348044AB6
:1049FC0004490023836000F0B5BE00BF68E70320C4
:104A0C0030E70320C9490D00014B1860704700BF07
:104A1C00CCE6032008B50B4B43B100F0EDFB03686B
:104A2C001B699847002801DDAFF30080064B43B1AA
:104A3C0000F060FC03681B699847002801DDAFF3A8
:104A4C00008008BD000000000000000008B5FFF762
:104A5C00E1FFFFF74BFC014B186008BDD4E70320C6
:104A6C000248034A0349121A01F0A2B800F40320C9
:104A7C0004F40320505E0D0007B5002300931A4682
:104A8C006FF07701FFF734FD03B05DF804FB000015
:104A9C0007B543880A2B08D0502B0BD1094B1B6848
:104AAC004BB103B05DF804EB1847FFF7E5FF03B01B
:104ABC005DF804FB002300931A466FF07701FFF7B3
:104ACC0017FDF4E77CE7032038B5124C1248134D60
:104ADC000021FFF7A7FD2368AB42114B0CBF01224D
:104AEC0000221A7002D0FFF7BBFF2560FFF7E6FB30
:104AFC00044601F073F80B4B13B12046AFF3008062
:104B0C0000210848FFF75EFDBDE83840064800214B
:104B1C00FFF7E4BC00F40320154A0D001E1C279A75
:104B2C0078E70320000000009D4A0D00704700202C
:104B3C00704710B51021044600F019FE204610BD38
:104B4C0008B5FFF7F6FF08BD30B500224FF69C7490
:104B5C00026084808D888C800C68858004600A607B
:104B6C0030BD10B504460068FFF73CFD204610BD73
:104B7C0038B5C468F4B12378022B03D104F10C00CE
:104B8C00FFF7EFFF656835B12846FFF70EFF1021E0
:104B9C00284600F0ECFDA56835B12846FFF705FF67
:104BAC001021284600F0E3FD20461421BDE83840D2
:104BBC0000F0DDBD38BD73B50E46044656F8043B17
:104BCC0000930D4601A83146FFF774FE019A009B35
:104BDC006260236001A8002301930093FFF7A5FAFC
:104BEC003046FFF7A2FA2846082100F0C0FD204607
:104BFC0002B070BD826810B50AB900F0BCFDBDE80A
:104C0C001040C368184708B5006800F11001FFF7A1
:104C1C00F1FF08BD826810B50AB900F0ACFDBDE823
:104C2C001040C368184708B5006800F11001FFF781
:104C3C00F1FF08BD38B500230446036010200D4673
:104C4C00FFF721FA28B10123C0E90133024B0360BD
:104C5C00C5602060204638BD105D0D0038B50023BE
:104C6C0083608B6804460D462BB102229847EB6893
:104C7C00E360AB68A360204638BD0000F0B589B096
:104C8C0004686846FFF760FF4FF00203D4E84F2F2B
:104C9C00002A03D1C4E8413F0029F7D125D104F102
:104CAC000C0569462846FFF74FFFBFF35B8F0123C6
:104CBC006370002004F10803BFF35B8F53E8006FAF
:104CCC0043E80002002AF9D1BFF35B8F6EB1FFF706
:104CDC00F5FB78B129463046FFF78CFF3046FFF7DD
:104CEC0064FE1021304600F042FD6846FFF739FFA4
:104CFC0009B0F0BD314602A8FFF7B0FFE068B4F987
:104D0C00105008B100F08EFF06901020ADF81C502A
:104D1C00FFF7B9F90546E8B1002787601820FFF7BF
:104D2C00B2F9044688B10146876002A8FFF74CFE31
:104D3C00049BA268A360059B049206A9E268E36049
:104D4C0004F110000592FFF7FFFE084BEB60084BD7
:104D5C002C60AB6006A8FFF704FF02A8FFF725FE46
:104D6C00002229460348FFF7B1FBB7E7134C0D00AF
:104D7C00A94E0D0089530D002DE9F0478AB0054668
:104D8C009DF848900C4617469846FFF70BFC07AE6B
:104D9C00824638BB4FF62E73059005A93046ADF808
:104DAC001830FFF7D1FE1420FFF76DF9044648B117
:104DBC00022303700123C0E901AA437031460C3071
:104DCC00FFF7C2FE2846214640F8044BFFF732FF9E
:104DDC003046FFF7C6FE05A8FFF7C3FE28460AB00B
:104DEC00BDE8F0870C234FF0000A1420CDE908AA87
:104DFC000793FFF748F9014628B1C0E901AA80F8EA
:104E0C0000A080F801A004A80391FFF713FF224B28
:104E1C0008930820FFF737F9824628B1039B40F826
:104E2C00043B04A9FFF746FD00965FFA89F342465E
:104E3C0039462046CDF824A0FFF7BCFBB8B9039B3C
:104E4C005B7803F0FF0293B94FF69C7305A903A896
:104E5C000592ADF81830FFF711FF05A8FFF781FE9A
:104E6C0005A80999FFF7A7FE06A8FFF75EF9039BB3
:104E7C00059304A906A8FFF71DFD059B069A2B6058
:104E8C006A60002306A806930593FFF74EF904A861
:104E9C00FFF74BF9A2E700BF6D4F0D00022AF8B5E2
:104EAC00054607D0032A18D0012A01D10B680360EC
:104EBC000020F8BD18200E68FFF7E5F8044650B145
:104ECC003146FFF7CBFE3069B6F9147008B100F02B
:104EDC00A9FE2061A7822C60EAE70468002CE7D0C9
:104EEC0004F11000FFF73DFE2046FFF75EFD182190
:104EFC00204600F03CFCDBE738B5002383608B6870
:104F0C0004460D462BB102229847EB68E360AB6870
:104F1C00A360204638BD022A70B5044607D0032A88
:104F2C0012D0012A01D10B680360002070BD14203F
:104F3C000E68FFF7A8F8054620B13146FFF7DCFFF5
:104F4C00337C2B742560F0E70468002CEDD02046F0
:104F5C00FFF72BFD1421204600F009FCE5E70000CB
:104F6C00F0B589B004460D4601A81146FFF723FEA3
:104F7C00A4B124B21DB1284600F054FE054601A888
:104F8C0003A90395ADF81040FFF778FE03A8FFF7CF
:104F9C00E8FD02A8FFF7C9F809B0F0BD019D012397
:104FAC00D5E84F2F002A03D1C5E8413F0029F7D19E
:104FBC00EFD12B73BFF35B8F6B702B1DBFF35B8F2C
:104FCC0053E8006F43E80042002AF9D1BFF35B8F2E
:104FDC00002EDED02046FFF771FA074660B105F1CE
:104FEC000C013046FFF716FE3046FFF7DEFC1021B1
:104FFC00304600F0BCFBCCE7314603A8FFF77CFF42
:10500C002B7B8DF81C301020FFF73DF80546D0B1F6
:10501C0087601420FFF737F8044678B187600146A3
:10502C0003A8FFF7D1FC059BA268A360069B059221
:10503C00E268E3609DF81C3006922374064BEB602B
:10504C00064B2C60AB6003A8FFF7AFFC002229468F
:10505C000348FFF73BFAC7E7334C0D00234F0D0015
:10506C0089530D00704710B51821044600F07FFBE2
:10507C00204610BDF0B5037D062B8DB00E4600F119
:10508C0004074FF0000412D000F1080515F8011DBB
:10509C000A223046FFF755FCAF42044419D0002CCD
:1050AC00F4D02E213046FFF749FC0444EEE72F23C1
:1050BC006A4639460A208DF80040FFF72FF96846FA
:1050CC0000F0CDFD33680246DB68694630469847F0
:1050DC00044620460DB0F0BD10B5054B0446112218
:1050EC0040F8043B002100F071FD204610BD00BFCC
:1050FC002C5D0D000346074A10B543F8042B01F153
:10510C00100251F8044B43F8044B9142F9D10A7840
:10511C001A7010BD2C5D0D0010B59DF8084044EAC6
:10512C00032343EA024242EA01610423416003750E
:10513C0010BD13B5CB7800938B784A780978FFF7BC
:10514C00EBFF02B010BD41747047704708B50021E9
:10515C00007CFFF78BF940EAE07008BD08B501212F
:10516C00007CFFF783F940EAE07008BD08B5007CCD
:10517C00FFF774F920EAE07008BD08B5007CFFF772
:10518C0065F920EAE07008BD13B50446007C019176
:10519C00FFF764F90028019901DC607C20B1207CC8
:1051AC00FFF76CF920EAE07002B010BD007CFFF74D
:1051BC006DB910B51421044600F0D9FA204610BD83
:1051CC0010B54FF47A73044608460021C4E9011364
:1051DC00044B23600123207463741146FFF72EF9EE
:1051EC00204610BD405D0D0010B514220446002170
:1051FC0000F0ECFC204610BD10B5104C88B003A894
:10520C00FFF7F2FF2178BFF35B8F11F0010111D191
:10521C0020460191FEF73DFF019958B103AA0848B9
:10522C00FFF7CEFF2046FEF739FF064A0649044831
:10523C0000F098FA024808B010BD00BF80E70320C8
:10524C0084E7032030E7032057510D007047417469
:10525C00704708B5007CFFF7A1F820EAE07008BDA4
:10526C0008B5007CFFF772F820EAE07008BD08B5BD
:10527C00007CFFF77BF840EAE07008BD08B5007CC5
:10528C00FFF76CF840EAE07008BD007CFFF776B8D9
:10529C0037B5457C04462DB1207C03B0BDE83040C9
:1052AC00FFF74CB8007C0191FFF778F800280199C2
:1052BC00F2DC284603B030BD10B51421044600F0D2
:1052CC0056FA204610BD000010B54FF0000C0446F5
:1052DC00084611464FF47A72C4E901C2044A2260AE
:1052EC000122207462741A46FFF720F8204610BD84
:1052FC00705D0D00F7B51B4C26684EB98420FEF787
:10530C00C2FE054618B18422314600F05FFC2560D0
:10531C00154D2F684FB98420FEF7B5FE064618B11F
:10532C008422394600F052FC2E60104E3178BFF3C7
:10533C005B8F11F0010112D130460191FEF7A9FEED
:10534C00019960B122682B680948FFF7BDFF304610
:10535C00FEF7A4FE074A0849054800F003FA044882
:10536C0003B0F0BD9CE70320A0E7032098E70320DF
:10537C00A4E7032030E7032059520D0010B58368D1
:10538C0004460BB900F0F7F9C3689847A3681BB142
:10539C00032221462046984720461021BDE81040A4
:1053AC0000F0E5B97047F8B5064615460C468F185F
:1053BC00BC4206D0336814F8011B9B6830469847F2
:1053CC00F6E72846F8BD007C0022FEF7EFBF007C14
:1053DC000021FEF7F3BF007C0021FEF7F7BF007C35
:1053EC000021FEF7FBBF007C0021FEF7FFBF10B5CC
:1053FC001421044600F0BBF9204610BD10B54FF443
:10540C007A73044608460021C4E90113034B236058
:10541C0020741146FEF7FAFF204610BDA05D0D006A
:10542C00002240681146FFF785B8002240681146FB
:10543C00FFF7A0B8002240681146FFF7ABB84068F0
:10544C000022FFF79FB84068002281F00101FFF7AE
:10545C0089B8002340681A461946FFF77BB8002329
:10546C0040681A461946FFF76DB80022406811468D
:10547C00FFF750B8406800220221FFF753B8002311
:10548C0040681A46FFF73EB8024B04225A60024AA3
:10549C001A607047B8E70320C85D0D000023406810
:1054AC001A46FFF72FB8406800220221FFF73AB8DE
:1054BC00002240681146FFF72DB8002240681146C3
:1054CC00FFF738B8002340681A461946FFF73AB878
:1054DC00002340681A461946FFF73CB84068002282
:1054EC0081F00101FFF73EB840680022FFF74AB88F
:1054FC00002240681146FFF74DB800224068114663
:10550C00FFF738B82DE9F043002495B016460D4648
:10551C000746FFF7E1FD214618220EA8009400F083
:10552C0055FB4023CDE90C3421466B460CAA304682
:10553C00FEF79CFE0446002846D10246012168680D
:10554C00FEF7F8FF0221804622466868FEF7F2FF5C
:10555C00009E81462146002E36D0002934D1736836
:10556C00022B03D00A2B0BD0F669F4E7B8F1000F2D
:10557C0004D0716938460431FFF7DBFD4146F3E78F
:10558C00B9F1000F01D14946EEE77469102201A868
:10559C0000F01CFB06238DF8143001AD04F1080358
:1055AC001834186859682A4603C20833A3421546B2
:1055BC00F7D101A906A807ADFFF79CFD0FCD3C1D47
:1055CC000FC42B682370DEE70098FEF747FE3846C1
:1055DC0015B0BDE8F0830000024B034A1A600022AC
:1055EC005A607047C0E70320FC5D0D00232813B5FB
:1055FC0002D9002002B010BDA0F10B03022B1AD867
:10560C00174C2178BFF35B8F11F001010BD12046B1
:10561C000191FEF73EFD019928B11248FFF748F8B9
:10562C002046FEF73BFD0F4B1878FEF7FFFE0028D7
:10563C00DFD10120DEE7012809D800F06BF800214A
:10564C00007CFEF7DBFE80F00100C0B2D2E7093827
:10565C000128EED8FFF74EFE007CFEF797FEF2E72E
:10566C00C8E70320CCE70320232838B504460D46B1
:10567C000AD8FF2908D0FFF7B9FF28B129462046E0
:10568C00BDE83840FEF7FABD38BD38B504460D46C6
:10569C00FEF7FCFDFF2810D0062804D84D2323FA72
:1056AC0000F0C30709D42046FFF7A0FF28B1294614
:1056BC002046BDE83840FEF7F1BD38BD10B50446B4
:1056CC00FEF7E4FD031FDBB2012B08D92046FFF7E0
:1056DC008DFF20B12046BDE81040FEF7E7BD00204D
:1056EC0010BD000038B50023202543801423044648
:1056FC000380856005610649284600F03AF80449A4
:10570C006060284600F035F8E060204638BD00BFE8
:10571C00285E0D0030B50F4D2978BFF35B8F11F06B
:10572C00010487B013D12846FEF7B3FC78B101A869
:10573C00FFF7D8FF01AA21460748FFF75FFE28466E
:10574C00FEF7ACFC054A0649034800F00BF802488A
:10575C0007B030BDD8E70320DCE7032030E7032097
:10576C00B1530D000B460146184600F013BAFEF774
:10577C008EBCFEF78ABC08B5FEF744FF81F00041F1
:10578C0002E000BF83F0004330B54FEA41044FEA1A
:10579C00430594EA050F08BF90EA020F1FBF54EAB5
:1057AC00000C55EA020C7FEA645C7FEA655C00F051
:1057BC00E2804FEA5454D4EB5555B8BF6D420CDD22
:1057CC002C4480EA020281EA030382EA000083EAA5
:1057DC00010180EA020281EA0303362D88BF30BD45
:1057EC0011F0004F4FEA01314FF4801C4CEA11319B
:1057FC0002D0404261EB410113F0004F4FEA0333FA
:10580C004CEA133302D0524263EB430394EA050F84
:10581C0000F0A780A4F10104D5F1200E0DDB02FAF3
:10582C000EFC22FA05F2801841F1000103FA0EF287
:10583C00801843FA05F359410EE0A5F120050EF14D
:10584C00200E012A03FA0EFC28BF4CF0020C43FA7E
:10585C0005F3C01851EBE37101F0004507D54FF08B
:10586C00000EDCF1000C7EEB00006EEB0101B1F5DB
:10587C00801F1BD3B1F5001F0CD349085FEA300021
:10588C004FEA3C0C04F101044FEA445212F5800F2C
:10589C0080F09A80BCF1004F08BF5FEA500C50F1C9
:1058AC00000041EB045141EA050130BD5FEA4C0CAC
:1058BC00404141EB0101013C28BFB1F5801FE9D209
:1058CC0091F0000F04BF01460020B1FA81F308BF2C
:1058DC002033A3F10B03B3F120020CDA0C3208DDF8
:1058EC0002F1140CC2F10C0201FA0CF021FA02F1D3
:1058FC000CE002F11402D8BFC2F1200C01FA02F143
:10590C0020FA0CFCDCBF41EA0C019040E41AA2BF67
:10591C0001EB0451294330BD6FEA04041F3C1CDA2F
:10592C000C340EDC04F11404C4F1200220FA04F04F
:10593C0001FA02F340EA030021FA04F345EA0301F9
:10594C0030BDC4F10C04C4F1200220FA02F001FABB
:10595C0004F340EA0300294630BD21FA04F029463D
:10596C0030BD94F0000F83F4801306BF81F48011D6
:10597C000134013D4EE77FEA645C18BF7FEA655C49
:10598C0029D094EA050F08BF90EA020F05D054EA1B
:10599C00000C04BF1946104630BD91EA030F1EBF20
:1059AC000021002030BD5FEA545C05D14000494124
:1059BC0028BF41F0004130BD14F580043CBF01F517
:1059CC00801130BD01F0004545F0FE4141F47001FD
:1059DC004FF0000030BD7FEA645C1ABF19461046D8
:1059EC007FEA655C1CBF0B46024650EA013406BFD9
:1059FC0052EA033591EA030F41F4002130BD00BF98
:105A0C0090F0000F04BF0021704730B54FF4806454
:105A1C0004F132044FF000054FF0000150E700BFD5
:105A2C0090F0000F04BF0021704730B54FF4806434
:105A3C0004F1320410F0004548BF40424FF0000121
:105A4C003EE700BF42004FEAE2014FEA31014FEA64
:105A5C0002701FBF12F07F4393F07F4F81F06051B3
:105A6C00704732F07F4208BF704793F07F4F04BFFE
:105A7C0041F40021704730B54FF4607401F00045DB
:105A8C0021F000411CE700BF50EA010208BF70473B
:105A9C0030B54FF000050AE050EA010208BF70472C
:105AAC0030B511F0004502D5404261EB41014FF495
:105ABC00806404F132045FEA915C3FF4D8AE4FF09D
:105ACC0003025FEADC0C18BF03325FEADC0C18BF80
:105ADC00033202EBDC02C2F1200300FA03FC20FAD1
:105AEC0002F001FA03FE40EA0E0021FA02F114441E
:105AFC00BDE600BF4FEA4102B2F1E04324BFB3F56B
:105B0C00001CDCF1FE5C0DD901F0004C4FEAC00228
:105B1C004CEA5070B2F1004F40EB830008BF20F00C
:105B2C000100704711F0804F21D113F13872BCBFC6
:105B3C0001F00040704741F480114FEA5252C2F11B
:105B4C001802C2F1200C10FA0CF320FA02F018BF64
:105B5C0040F001004FEAC1234FEAD32303FA0CFCB7
:105B6C0040EA0C0023FA02F34FEA4303CCE77FEA46
:105B7C00625307D150EA01331EBF4FF0FE4040F490
:105B8C004000704701F0004040F0FE4040F400003F
:105B9C00704700BF10B5054C13462CB10A460146A0
:105BAC000220AFF3008010BD2046FCE7000000008F
:105BBC000A44914200F1FF3300D1704710B511F83F
:105BCC00014B03F8014F9142F9D110BD0244034639
:105BDC00934200D1704703F8011BF9E738B50D4B20
:105BEC001D68AB6B04467BB91820FEF7F3FC0A4A20
:105BFC000A4BA863C0E90023094B83600B23838104
:105C0C0001220023C0E90423AB6B00221C615A6102
:105C1C0038BD00BFCCE603200E33CDAB34126DE69D
:105C2C00ECDE0500024B0146186800F003B800BF1B
:105C3C00CCE6032037B5044608460D4600F00FF8B5
:105C4C00421C114620460192FEF7E4FC044618B1B2
:105C5C00019A2946FFF7ACFF204603B030BD03463E
:105C6C0013F8012B002AFBD1181A013870470000D9
:105C7C001D400D0059400D0081400D0085400D0068
:105C8C000000000066616C73650061745F6465738D
:105C9C006B0074727565007175616C6974795F6302
:105CAC006865636B0000000000000000000000004D
:105CBC009F460D0095460D008B460D0081460D004C
:105CCC0075460D0069460D005D460D0055460D00EC
:105CDC004B460D0041460D0011550D0061707000D2
:105CEC0025592D256D2D25645425483A254D3A25E9
:105CFC0053257A0061736374696D650000000000C0
:105D0C0000000000394B0D003F4B0D007D4B0D008A
:105D1C004D4B0D003B4B0D0000000000000000003F
:105D2C0081500D0071500D0073500D0000000000EB
:105D3C000000000057510D00BF510D0095510D0092
:105D4C00F9480D0087510D0059510D0069510D0096
:105D5C00B9510D0079510D0053510D000000000098
:105D6C000000000059520D00C5520D009D520D004F
:105D7C00F9480D006D520D0089520D007B520D003B
:105D8C0097520D005B520D005F520D000000000099
:105D9C0000000000B1530D00FB530D00D3530D0058
:105DAC00B3530D00DB530D00E3530D00EB530D000B
:105DBC00F3530D0000000000000000008B540D0098
:105DCC0081540D0077540D002D540D006B540D00B3
:105DDC005F540D0053540D004B540D0041540D00F5
:105DEC0037540D0011550D0000000000000000009C
:105DFC00A9540D00B3540D00BD540D00C7540D0033
:105E0C00D1540D00DD540D00E9540D00F5540D0076
:105E1C00FD540D0007550D0011550D00000000003C
:105E2C005D420D00A9460D00F1460D00D1480D0054
:105E3C008D490D009D490D00F9490D0095540D003B
:045E4C00E5550D000B
:045E5000000000004E
:105E54000A000000005D0D00D0E6032000000000F1
:105E6400000000000000000000000000000000002E
:105E7400000000000000000000000000000000001E
:105E8400000000000000000000000000000000000E
:105E940000000000000000000000000000000000FE
:105EA40000000000000000000000000000000000EE
:0C5EB400000000000000000000000000E2
:105EC000FFFFFFFF00000102030405060708090A9F
:105ED0000B0C0D0E0F101112131415161718191A9A
:085EE0001B1C1D1E1F202800E1
:045EE80078563412A2
:04000003D000401CCD
:00000001FF
