:02000002D0002C
:1040000000400D00085F0D00000006000C000501D7
:084010000401BD0B00000000DB
:04401800785C0D00C3
:10401C0009480A49884208B505D0094A824202D0AB
:10402C00121A01F0C3FD0748074A0021121A01F0C9
:10403C00CBFD014808BD00BFC4E60320745E0D0033
:10404C0030E7032030E70320F0E7032070B5074E7C
:10405C00074C00F03BFDA41BA4080025A54200D191
:10406C0070BD56F8043B98470135F7E7405E0D00EC
:10407C00645E0D0000F024B808B500F061F8BDE8EE
:10408C00084000F0E5BC00F0A1BA00F09FBA00F0C7
:10409C00A5BA0078B0FA80F040097047012303708C
:1040AC007047000013B5054B1B788DF800303C238E
:1040BC00044600F063FE204602B010BD34E7032036
:1040CC0008B50121022001F0DFFA0021032001F0E4
:1040DC00DBFABDE808400021022001F0E6BA08B581
:1040EC000121022001F0E1FA0A2000F0E3F800219E
:1040FC00022001F0DAFA0121032001F0EFFA3A2351
:10410C00B0FBF3F001F07AFC01F0F2FC00EE100AC7
:10411C0008BD38B5046805467CB16368013B636033
:10412C005BB9236820469B689847A368013BA36052
:10413C001BB923682046DB689847284638BD000029
:10414C0070B52DED028B86B0FFF7C9FF10EE100A8B
:10415C00B0EE408A01F074FCDFED2E7A2E4B2F4C22
:10416C00B4EEE78AF1EE10FAC3E9000104DB236830
:10417C00132BDCBF013323602368294D142B34D15E
:10418C00B4EEE78A0022F1EE10FA2A7005D8013B52
:10419C00236023680BB901232B70224E2A783178C7
:1041AC00914208D04ABB02A81F4A2049FFF77AFF68
:1041BC0003A8FFF7AEFF21680A2202A800F05BFB00
:1041CC00029A1B496846FFF76DFF01A8FFF7A1FF94
:1041DC0002A800F0F3FA2B7833704FF4FA6000F079
:1041EC00FDFB06B0BDEC028B70BDB4EEE78AF1EEC0
:1041FC0010FACED8002BCCDDC9E70E4A0B4902A829
:10420C00FFF750FF03A8FFF784FF2B78002BD2D1C8
:10421C00C9E700BF0000C84238E70320C4E603200A
:10422C0035E7032040E703208C5C0D00925C0D0009
:10423C009F5C0D009A5C0D00014B00221A707047B8
:10424C0034E7032008B5024B1B689B68019308BD3B
:10425C006802030008B5024B1B68DB68019308BDBC
:10426C006802030008B5024B1B689B68019308BDEC
:10427C002C02030008B5024B1B68DB68019308BDD8
:10428C002C02030008B5024B1B681B69019308BD87
:10429C002C02030008B5024B1B68DB6C019308BDB4
:1042AC002C02030008B5024B1B685B68019308BD28
:1042BC001802030008B5024B1B68DB68019308BDAC
:1042CC001802030008B5024B1B685B69019308BD1B
:1042DC001802030008B5024B1B685B6C019308BD08
:1042EC004802030008B5024B1B689B6C019308BD88
:1042FC004802030008B5024B1B685B69019308BDBB
:10430C006402030008B5024B1B681B68019308BDCF
:10431C003C02030008B5024B1B68DB68019308BD27
:10432C003C02030008B5024B1B681B69019308BDD6
:10433C003C02030008B5024B1B685B69019308BD86
:10434C003C02030008B5024B1B689B69019308BD36
:10435C003C02030008B5024B1B68DB69019308BDE6
:10436C003C02030008B5024B1B681B6A019308BD95
:10437C003C02030008B5024B1B689B6A019308BD05
:10438C003C02030008B5024B1B681B6A019308BD75
:10439C002802030008B5024B1B685B6A019308BD39
:1043AC002802030008B5024B1B689B6A019308BDE9
:1043BC002802030008B5024B1B68DB6A019308BD99
:1043CC002802030008B5024B1B681B6B019308BD48
:1043DC002802030008B5024B1B685B6B019308BDF8
:1043EC002802030008B5024B1B681B6C019308BD27
:1043FC002802030008B5024B1B68DB69019308BD5A
:10440C003002030008B5024B1B681B6A019308BD00
:10441C003002030008B5024B1B681B68019308BDF2
:10442C004C02030008B5024B1B681B69019308BDC5
:10443C004C02030008B5024B1B685B69019308BD75
:10444C004C02030008B5024B1B689B69019308BD25
:10445C004C02030008B5024B1B68DB69019308BDD5
:10446C004C02030008B5024B1B681B6A019308BD84
:10447C004C02030008B5024B1B685B68019308BD36
:10448C002002030008B5024B1B685B69019308BD51
:10449C002002030008B5024B1B68DB6C019308BDBE
:1044AC002002030008B5024B1B685B6D019308BD2D
:1044BC002002030008B5034B1B68D3F88830019326
:1044CC0008BD00002002030008B5034B1B68D3F89D
:1044DC009430019308BD00002002030008B5024B84
:1044EC001B685B68019308BD4002030008B5024BD2
:1044FC001B689B68019308BD4002030008B5024B82
:10450C001B68DB68019308BD4002030008B5024B31
:10451C001B681B69019308BD4002030008B5024BE0
:10452C001B685B69019308BD4002030008B5024B90
:10453C001B689B69019308BD4002030008B5024B40
:10454C001B68DB69019308BD4002030008B5024BF0
:10455C001B681B6A019308BD4002030008B5024B9F
:10456C001B681B6B019308BD4002030008B5024B8E
:10457C001B685B6B019308BD4002030008B5024B3E
:10458C001B681B6C019308BD4002030008B5024B6D
:10459C001B685B6C019308BD4002030008B5024B1D
:1045AC001B685B69019308BD4402030008B5024B0C
:1045BC001B681B6A019308BD4402030008B5024B3B
:1045CC001B68DB6B019308BD4402030008B5024B6A
:1045DC001B681B68019308BD1C02030008B5024B45
:1045EC001B685B68019308BD1C02030008B5024BF5
:1045FC001B689B68019308BD1C02030008B5024BA5
:10460C001B68DB6A019308BD1C02030008B5024B52
:10461C001B681B6B019308BD1C02030008B5024B01
:10462C001B685B6C019308BD1C02030000224068F0
:10463C001146FFF78BBF002240681146FFF796BF6B
:10464C0040680022FFF78ABF4068002281F0010118
:10465C00FFF774BF002340681A461946FFF766BF80
:10466C00002340681A461946FFF758BF00224068DD
:10467C001146FFF74BBF002240681146FFF736BFCB
:10468C00406800220221FFF739BF002340681A4618
:10469C00FFF724BF024B03225A60024A1A6070478C
:1046AC0044E70320B85C0D0010B5044608462170A1
:1046BC00FFF7A0FE00236360204610BD10B5044632
:1046CC00006818B1FFF78AFF0023236010BD10B5F6
:1046DC000446FFF7F3FF204610BD000010B5094B50
:1046EC00094C022200201A60084B2060A080A071A7
:1046FC00A360FFF7BFFE2046054A0649BDE81040FF
:10470C0001F02EB858E703204CE703200000FFFF10
:10471C0030E70320DB460D0010B5044601F09DFA8E
:10472C00013823182046834206D90278197800F8FC
:10473C00011B03F80129F6E710BD70B50C46911E5C
:10474C002229054622D820466DB1B5FBF2F602FBB4
:10475C001655E9B2092D94BF30315731C9B200F862
:10476C00011B3546F0E7024623443021934202D91F
:10477C0002F8011BFAE71A1A834238BF0022002301
:10478C0083542046FFF7C8FF204670BD0020FCE78D
:10479C0038B5031E0C4615460EDAB3F1004F4FF038
:1047AC002D0214BF5842184601230A702A46194498
:1047BC00FFF7C3FF204638BD0123F9E710B50446C7
:1047CC000068FFF70BFF204610BD10B504460068CB
:1047DC0008B1FFF703FF0023C4E90133236010BDC8
:1047EC0038B504460D4600680131FFF7FFFE10B1E5
:1047FC00C4E90005012038BD10B50368044623B197
:10480C0043688B4201D3012010BD2046FFF7E8FF1F
:10481C000028F9D0A368002BF5D122681370F2E7B9
:10482C0037B50D46114601920446FFF7E5FF019A94
:10483C0028B92046FFF7C9FF204603B030BDA2605F
:10484C002946206801F0B2F92268A3680021D154EE
:10485C00F2E713B5044659B10846019101F0FDF990
:10486C00019902462046FFF7DBFF204602B010BD3F
:10487C00FFF7ABFFF9E710B504468AB00023C4E993
:10488C000033A3602373084601A9FFF781FF01A938
:10489C002046FFF7DEFF20460AB010BD10B50446D7
:1048AC00006808B1FFF71EFD204610BD10B58368E7
:1048BC00044613B1032201469847204610BD0B68ED
:1048CC00036013B15A6801325A60704713B50B4636
:1048DC000246D0E900016C4684E8030093E803002B
:1048EC0082E8030094E8030083E8030002B010BDE3
:1048FC0010B5064C002320462360FFF7EBFC204646
:10490C00034A0449BDE8104000F02ABF5CE70320CD
:10491C0030E70320A9480D00F8B506460D468F1860
:10492C000024BD420CD0336815F8011B9B6830463F
:10493C009847031E01DB1C44F3E7002C08BF1C4600
:10494C002046F8BD13B50446084659B1019101F053
:10495C0084F923680199DB680246204602B0BDE861
:10496C001040184702B010BD03689B68184730B55B
:10497C008BB000238DF82430012A98BF0A2209AC91
:10498C000D46B1FBF2F101FB125303F0FF03092BAF
:10499C0094BF30333733DBB2AA4204F8013DEFD970
:1049AC002146FFF7CFFF0BB030BD002340681A46FD
:1049BC001946FFF7B3BD0000014B024A1A6070475D
:1049CC0060E70320EC5C0D00024B1A68024B1A6086
:1049DC00704700BFC8E6032064E703200021FFF7FF
:1049EC0051BD10B50446FFF761FF204610BD000015
:1049FC000348044A04490023836000F0B1BE00BFA1
:104A0C0068E7032030E70320EF490D00014B1860E5
:104A1C00704700BFCCE6032008B50B4B43B100F048
:104A2C00F3FB03681B699847002801DDAFF3008096
:104A3C00064B43B100F066FC03681B6998470028DD
:104A4C0001DDAFF3008008BD000000000000000095
:104A5C0008B5FFF7E1FFFFF735FC014B186008BD07
:104A6C00D4E703200248034A0349121A01F09EB806
:104A7C0000F4032004F40320705E0D0007B500233E
:104A8C0000931A466FF07701FFF71EFD03B05DF837
:104A9C0004FB000007B543880A2B08D0502B0BD120
:104AAC00094B1B684BB103B05DF804EB1847FFF7DB
:104ABC00E5FF03B05DF804FB002300931A466FF08A
:104ACC007701FFF701FDF4E77CE7032038B5124CC2
:104ADC001248134D0021FFF7A1FD2368AB42114B87
:104AEC000CBF012200221A7002D0FFF7BBFF256019
:104AFC00FFF7D8FB044601F06FF80B4B13B12046BF
:104B0C00AFF3008000210848FFF758FDBDE838409E
:104B1C0006480021FFF7CEBC00F40320194A0D0013
:104B2C001E1C279A78E7032000000000A14A0D0004
:104B3C0070470020704710B51021044600F015FE98
:104B4C00204610BD08B5FFF7F6FF08BD30B50022B2
:104B5C004FF69C74026084808D888C800C688580F4
:104B6C0004600A6030BD10B504460068FFF736FDDE
:104B7C00204610BD38B5C468F4B12378022B03D19C
:104B8C0004F10C00FFF7EFFF656835B12846FFF71D
:104B9C008DFE1021284600F0E8FDA56835B12846A9
:104BAC00FFF784FE1021284600F0DFFD204614217B
:104BBC00BDE8384000F0D9BD38BD73B50E4604468B
:104BCC0056F8043B00930D4601A83146FFF777FEDB
:104BDC00019A009B6260236001A80023019300935B
:104BEC00FFF797FA3046FFF794FA2846082100F0B1
:104BFC00BCFD204602B070BD826810B50AB900F049
:104C0C00B8FDBDE81040C368184708B5006800F14E
:104C1C001001FFF7F1FF08BD826810B50AB900F06A
:104C2C00A8FDBDE81040C368184708B5006800F13E
:104C3C001001FFF7F1FF08BD38B5002304460360EF
:104C4C0010200D46FFF71FFA28B10123C0E90133EC
:104C5C00024B0360C5602060204638BD145D0D001A
:104C6C0038B5002383608B6804460D462BB10222B5
:104C7C009847EB68E360AB68A360204638BD000042
:104C8C00F0B589B004686846FFF760FF4FF0020387
:104C9C00D4E84F2F002A03D1C4E8413F0029F7D1B3
:104CAC0025D104F10C0569462846FFF74FFFBFF3E9
:104CBC005B8F01236370002004F10803BFF35B8F4B
:104CCC0053E8006F43E80002002AF9D1BFF35B8F71
:104CDC006EB1FFF7DFFB78B129463046FFF78CFF4A
:104CEC003046FFF7E3FD1021304600F03EFD6846EC
:104CFC00FFF739FF09B0F0BD314602A8FFF7B0FF4E
:104D0C00E068B4F9105008B100F08AFF069010204A
:104D1C00ADF81C50FFF7B7F90546E8B100278760DE
:104D2C001820FFF7B0F9044688B10146876002A845
:104D3C00FFF7CCFD049BA268A360059B049206A917
:104D4C00E268E36004F110000592FFF7FFFE084BE8
:104D5C00EB60084B2C60AB6006A8FFF704FF02A8C1
:104D6C00FFF7A4FD002229460348FFF79BFBB7E79A
:104D7C00174C0D00AD4E0D0099530D002DE9F04769
:104D8C008AB005469DF848900C4617469846FFF7A2
:104D9C0005FC07AE824638BB4FF62E73059005A96D
:104DAC003046ADF81830FFF7D1FE1420FFF76BF941
:104DBC00044648B1022303700123C0E901AA4370E1
:104DCC0031460C30FFF7C2FE2846214640F8044B12
:104DDC00FFF732FF3046FFF7C6FE05A8FFF7C3FE0C
:104DEC0028460AB0BDE8F0870C234FF0000A1420C7
:104DFC00CDE908AA0793FFF746F9014628B1C0E9A7
:104E0C0001AA80F800A080F801A004A80391FFF784
:104E1C0013FF224B08930820FFF735F9824628B17F
:104E2C00039B40F8043B04A9FFF749FD00965FFA89
:104E3C0089F3424639462046CDF824A0FFF7B6FB4D
:104E4C00B8B9039B5B7803F0FF0293B94FF69C73E0
:104E5C0005A903A80592ADF81830FFF711FF05A8B6
:104E6C00FFF781FE05A80999FFF7A7FE06A8FFF733
:104E7C0050F9039B059304A906A8FFF720FD059B99
:104E8C00069A2B606A60002306A806930593FFF729
:104E9C0040F904A8FFF73DF9A2E700BF714F0D00E0
:104EAC00022AF8B5054607D0032A18D0012A01D1E9
:104EBC000B6803600020F8BD18200E68FFF7E3F8BC
:104ECC00044650B13146FFF7CBFE3069B6F9147089
:104EDC0008B100F0A5FE2061A7822C60EAE7046807
:104EEC00002CE7D004F11000FFF73DFE2046FFF741
:104EFC00DDFC1821204600F038FCDBE738B5002338
:104F0C0083608B6804460D462BB102229847EB68F0
:104F1C00E360AB68A360204638BD022A70B5044636
:104F2C0007D0032A12D0012A01D10B68036000209C
:104F3C0070BD14200E68FFF7A6F8054620B1314667
:104F4C00FFF7DCFF337C2B742560F0E70468002C42
:104F5C00EDD02046FFF7AAFC1421204600F005FCFA
:104F6C00E5E70000F0B589B004460D4601A81146EE
:104F7C00FFF723FEA4B124B21DB1284600F050FE69
:104F8C00054601A803A90395ADF81040FFF778FE7C
:104F9C0003A8FFF7E8FD02A8FFF7BBF809B0F0BDC6
:104FAC00019D0123D5E84F2F002A03D1C5E8413FCD
:104FBC000029F7D1EFD12B73BFF35B8F6B702B1DD7
:104FCC00BFF35B8F53E8006F43E80042002AF9D12E
:104FDC00BFF35B8F002EDED02046FFF75BFA07464F
:104FEC0060B105F10C013046FFF716FE3046FFF7B5
:104FFC005DFC1021304600F0B8FBCCE7314603A82D
:10500C00FFF77CFF2B7B8DF81C301020FFF73BF853
:10501C000546D0B187601420FFF735F8044678B107
:10502C008760014603A8FFF751FC059BA268A360AB
:10503C00069B0592E268E3609DF81C30069223748F
:10504C00064BEB60064B2C60AB6003A8FFF72EFC05
:10505C00002229460348FFF725FAC7E7374C0D0015
:10506C00274F0D0099530D00704710B518210446B9
:10507C0000F07BFB204610BDF0B5037D062B8DB0F8
:10508C000E4600F104074FF0000412D000F10805A1
:10509C0015F8011D0A223046FFF769FCAF420444A3
:1050AC0019D0002CF4D02E213046FFF75DFC0444BF
:1050BC00EEE72F236A4639460A208DF80040FFF7A9
:1050CC0019F9684600F0C9FD33680246DB68694689
:1050DC0030469847044620460DB0F0BD10B5054B40
:1050EC000446112240F8043B002100F06DFD2046DF
:1050FC0010BD00BF305D0D000346074A10B543F8E4
:10510C00042B01F1100251F8044B43F8044B91426B
:10511C00F9D10A781A7010BD305D0D0010B59DF8EC
:10512C00084044EA032343EA024242EA01610423B1
:10513C004160037510BD000013B5054B0360CB78BF
:10514C0000938B784A780978FFF7E8FF02B010BD1E
:10515C00305D0D0041747047704708B50021007C2C
:10516C00FFF770F940EAE07008BD08B50121007C3A
:10517C00FFF768F940EAE07008BD08B5007CFFF75E
:10518C0059F920EAE07008BD08B5007CFFF74AF930
:10519C0020EAE07008BD13B50446007C0191FFF7CE
:1051AC0049F90028019901DC607C20B1207CFFF7D3
:1051BC0051F920EAE07002B010BD007CFFF752B943
:1051CC0010B51421044600F0D0FA204610BD0000A2
:1051DC0010B54FF47A73044608460021C4E9011354
:1051EC00044B23600123207463741146FFF712F9FA
:1051FC00204610BD445D0D0010B51422044600215C
:10520C0000F0E2FC204610BD10B5104C88B003A88D
:10521C00FFF7F2FF2178BFF35B8F11F0010111D181
:10522C0020460191FEF735FF019958B103AA0848B1
:10523C00FFF7CEFF2046FEF731FF064A0649044829
:10524C0000F08EFA024808B010BD00BF80E70320C2
:10525C0084E7032030E7032065510D00704741744B
:10526C00704708B5007CFFF785F820EAE07008BDB0
:10527C0008B5007CFFF756F820EAE07008BD08B5C9
:10528C00007CFFF75FF840EAE07008BD08B5007CD1
:10529C00FFF750F840EAE07008BD007CFFF75AB801
:1052AC0037B5457C04462DB1207C03B0BDE83040B9
:1052BC00FFF730B8007C0191FFF75CF800280199EA
:1052CC00F2DC284603B030BD10B51421044600F0C2
:1052DC004CFA204610BD000010B54FF0000C0446EF
:1052EC00084611464FF47A72C4E901C2044A22609E
:1052FC000122207462741A46FFF704F8204610BD90
:10530C00745D0D00F7B51B4C26684EB98420FEF772
:10531C00BAFE054618B18422314600F055FC2560D2
:10532C00154D2F684FB98420FEF7ADFE064618B117
:10533C008422394600F048FC2E60104E3178BFF3C1
:10534C005B8F11F0010112D130460191FEF7A1FEE5
:10535C00019960B122682B680948FFF7BDFF304600
:10536C00FEF79CFE074A0849054800F0F9F9044885
:10537C0003B0F0BD9CE70320A0E7032098E70320CF
:10538C00A4E7032030E7032069520D0010B58368B1
:10539C0004460BB900F0EDF9C3689847A3681BB13C
:1053AC00032221462046984720461021BDE8104094
:1053BC0000F0DBB97047F8B5064615460C468F1859
:1053CC00BC4206D0336814F8011B9B6830469847E2
:1053DC00F6E72846F8BD007C0022FEF7D3BF007C20
:1053EC000021FEF7D7BF007C0021FEF7DBBF007C5D
:1053FC000021FEF7DFBF007C0021FEF7E3BF10B5F4
:10540C001421044600F0B1F9204610BD10B54FF43C
:10541C007A73044608460021C4E90113034B236048
:10542C0020741146FEF7DEFF204610BDA45D0D0072
:10543C00002240681146FFF769B800224068114607
:10544C00FFF784B8002240681146FFF78FB8406818
:10545C000022FFF783B84068002281F00101FFF7BA
:10546C006DB8002340681A461946FFF75FB8002252
:10547C0040681146FFF73AB8406800220221FFF756
:10548C003DB8002340681A46FFF728B8024B0422A7
:10549C005A60024A1A607047B8E70320CC5D0D00D1
:1054AC00002340681A46FFF719B840680022022111
:1054BC00FFF724B8002240681146FFF717B8002206
:1054CC0040681146FFF722B8002340681A46194677
:1054DC00FFF724B8002340681A461946FFF726B890
:1054EC0040680021FFF74AB840680021FFF74EB82A
:1054FC004068002281F00101FFF720B840680022CB
:10550C00FFF72CB8002240681146FFF72FB8002295
:10551C0040681146FFF71AB82DE9F043002495B006
:10552C0016460D460746FFF7D9FD214618220EA850
:10553C00009400F049FB4023CDE90C3421466B4626
:10554C000CAA3046FEF786FE044600284CD10246D3
:10555C0001216868FEF7DAFF02218046224668685E
:10556C00FEF7D4FF009E81462146002E3CD0002938
:10557C003AD17368022B03D00A2B11D0F669F4E7E9
:10558C00B8F1000F0AD0716906A8043107ADFFF716
:10559C00D3FD0FCD3C1D0FC42B6823704146EDE7A6
:1055AC00B9F1000F01D14946E8E77469102201A84E
:1055BC0000F00AFB06238DF8143001AD04F108034A
:1055CC001834186859682A4603C20833A342154692
:1055DC00F7D101A906A807ADFFF78EFD0FCD3C1D35
:1055EC000FC42B682370DEE70098FEF72BFE3846BD
:1055FC0015B0BDE8F0830000024B034A1A6000228C
:10560C005A607047C0E70320085E0D00232813B5CD
:10561C0002D9002002B010BDA0F10B03022B1AD846
:10562C00174C2178BFF35B8F11F001010BD1204691
:10563C000191FEF72EFD019928B11248FFF734F8BD
:10564C002046FEF72BFD0F4B1878FEF7DBFE0028EB
:10565C00DFD10120DEE7012809D800F059F800213C
:10566C00007CFEF7B7FE80F00100C0B2D2E709382B
:10567C000128EED8FFF746FE007CFEF773FEF2E73A
:10568C00C8E70320CCE70320232838B504460D4691
:10569C000AD8FF2908D0FFF7B9FF28B129462046C0
:1056AC00BDE83840FEF7DEBD38BD38B504460D46C2
:1056BC00FEF7E0FDFF2810D0062804D84D2323FA6E
:1056CC0000F0C30709D42046FFF7A0FF28B12946F4
:1056DC002046BDE83840FEF7D5BD38BDFEF7DABD33
:1056EC0038B50023202543801423044603808560AD
:1056FC0005610649284600F03AF8044960602846DE
:10570C0000F035F8E060204638BD00BF3C5E0D006F
:10571C0030B50F4D2978BFF35B8F11F0010487B0C2
:10572C0013D12846FEF7B5FC78B101A8FFF7D8FFD6
:10573C0001AA21460748FFF769FE2846FEF7AEFC92
:10574C00054A0649034800F00BF8024807B030BD83
:10575C00D8E70320DCE7032030E70320C1530D001A
:10576C000B460146184600F013BAFEF790BCFEF744
:10577C008CBC08B5FEF742FF81F0004102E000BF8F
:10578C0083F0004330B54FEA41044FEA430594EAF5
:10579C00050F08BF90EA020F1FBF54EA000C55EA30
:1057AC00020C7FEA645C7FEA655C00F0E2804FEA01
:1057BC005454D4EB5555B8BF6D420CDD2C4480EAE3
:1057CC00020281EA030382EA000083EA010180EA13
:1057DC00020281EA0303362D88BF30BD11F0004F61
:1057EC004FEA01314FF4801C4CEA113102D0404297
:1057FC0061EB410113F0004F4FEA03334CEA1333D2
:10580C0002D0524263EB430394EA050F00F0A780E9
:10581C00A4F10104D5F1200E0DDB02FA0EFC22FAE4
:10582C0005F2801841F1000103FA0EF2801843FAD8
:10583C0005F359410EE0A5F120050EF1200E012AC9
:10584C0003FA0EFC28BF4CF0020C43FA05F3C01807
:10585C0051EBE37101F0004507D54FF0000EDCF180
:10586C00000C7EEB00006EEB0101B1F5801F1BD329
:10587C00B1F5001F0CD349085FEA30004FEA3C0C2D
:10588C0004F101044FEA445212F5800F80F09A8023
:10589C00BCF1004F08BF5FEA500C50F1000041EB27
:1058AC00045141EA050130BD5FEA4C0C404141EB2B
:1058BC000101013C28BFB1F5801FE9D291F0000F26
:1058CC0004BF01460020B1FA81F308BF2033A3F1D5
:1058DC000B03B3F120020CDA0C3208DD02F1140CCC
:1058EC00C2F10C0201FA0CF021FA02F10CE002F107
:1058FC001402D8BFC2F1200C01FA02F120FA0CFC00
:10590C00DCBF41EA0C019040E41AA2BF01EB045148
:10591C00294330BD6FEA04041F3C1CDA0C340EDC46
:10592C0004F11404C4F1200220FA04F001FA02F389
:10593C0040EA030021FA04F345EA030130BDC4F147
:10594C000C04C4F1200220FA02F001FA04F340EA3C
:10595C000300294630BD21FA04F0294630BD94F0ED
:10596C00000F83F4801306BF81F480110134013DD4
:10597C004EE77FEA645C18BF7FEA655C29D094EA45
:10598C00050F08BF90EA020F05D054EA000C04BFC3
:10599C001946104630BD91EA030F1EBF00210020AE
:1059AC0030BD5FEA545C05D14000494128BF41F04D
:1059BC00004130BD14F580043CBF01F5801130BDB1
:1059CC0001F0004545F0FE4141F470014FF000003C
:1059DC0030BD7FEA645C1ABF194610467FEA655CED
:1059EC001CBF0B46024650EA013406BF52EA03358F
:1059FC0091EA030F41F4002130BD00BF90F0000F7D
:105A0C0004BF0021704730B54FF4806404F13204B8
:105A1C004FF000054FF0000150E700BF90F0000F71
:105A2C0004BF0021704730B54FF4806404F1320498
:105A3C0010F0004548BF40424FF000013EE700BF68
:105A4C0042004FEAE2014FEA31014FEA02701FBFF8
:105A5C0012F07F4393F07F4F81F06051704732F02A
:105A6C007F4208BF704793F07F4F04BF41F4002181
:105A7C00704730B54FF4607401F0004521F00041DF
:105A8C001CE700BF50EA010208BF704730B54FF069
:105A9C0000050AE050EA010208BF704730B511F06A
:105AAC00004502D5404261EB41014FF4806404F1A2
:105ABC0032045FEA915C3FF4D8AE4FF003025FEA28
:105ACC00DC0C18BF03325FEADC0C18BF033202EBAC
:105ADC00DC02C2F1200300FA03FC20FA02F001FA06
:105AEC0003FE40EA0E0021FA02F11444BDE600BFA9
:105AFC004FEA4102B2F1E04324BFB3F5001CDCF1E4
:105B0C00FE5C0DD901F0004C4FEAC0024CEA50701B
:105B1C00B2F1004F40EB830008BF20F0010070474A
:105B2C0011F0804F21D113F13872BCBF01F000404D
:105B3C00704741F480114FEA5252C2F11802C2F17F
:105B4C00200C10FA0CF320FA02F018BF40F0010000
:105B5C004FEAC1234FEAD32303FA0CFC40EA0C00B2
:105B6C0023FA02F34FEA4303CCE77FEA625307D1EF
:105B7C0050EA01331EBF4FF0FE4040F44000704726
:105B8C0001F0004040F0FE4040F40000704700BFC0
:105B9C0010B5054C13462CB10A4601460220AFF352
:105BAC00008010BD2046FCE7000000000A44914232
:105BBC0000F1FF3300D1704710B511F8014B03F819
:105BCC00014F9142F9D110BD02440346934200D1DA
:105BDC00704703F8011BF9E738B50D4B1D68AB6B2B
:105BEC0004467BB91820FEF7F1FC0A4A0A4BA8635D
:105BFC00C0E90023094B83600B238381012200231E
:105C0C00C0E90423AB6B00221C615A6138BD00BF94
:105C1C00CCE603200E33CDAB34126DE6ECDE050082
:105C2C00024B0146186800F003B800BFCCE6032015
:105C3C0037B5044608460D4600F00FF8421C1146D5
:105C4C0020460192FEF7E2FC044618B1019A29465F
:105C5C00FFF7ACFF204603B030BD034613F8012B11
:105C6C00002AFBD1181A0138704700001D400D00A6
:105C7C0059400D0081400D0085400D0000000000D2
:105C8C0066616C73650061745F6465736B0074723C
:105C9C007565007175616C6974795F636865636BB8
:105CAC0000000000000000000000000097460D00FE
:105CBC008D460D0083460D0079460D006D460D0096
:105CCC0061460D00ED540D00F5540D0055460D00C8
:105CDC004D460D0043460D0039460D0025550D006F
:105CEC006170700025592D256D2D25645425483A79
:105CFC00254D3A2553257A0061736374696D6500EF
:105D0C0000000000000000003D4B0D00434B0D0057
:105D1C00814B0D00514B0D003F4B0D00000000005E
:105D2C000000000085500D0075500D0077500D00DF
:105D3C00000000000000000065510D00CD510D0069
:105D4C00A3510D0025490D0095510D0067510D0013
:105D5C0077510D00C7510D0087510D0061510D0099
:105D6C00000000000000000069520D00D5520D002B
:105D7C00AD520D0025490D007D520D0099520D00BC
:105D8C008B520D00A7520D006B520D006F520D007F
:105D9C000000000000000000C1530D000B540D006A
:105DAC00E3530D00C3530D00EB530D00F3530D00E3
:105DBC00FB530D0003540D00000000000000000018
:105DCC008F540D0085540D007B540D003D540D0077
:105DDC00B7490D006F540D00ED540D00F5540D0036
:105DEC0063540D005B540D0051540D0047540D00CD
:105DFC0025550D000000000000000000AD540D0002
:105E0C00B7540D00C1540D00CB540D00D5540D00EA
:105E1C00E1540D00ED540D00F5540D00FD540D0032
:105E2C0009550D0011550D001B550D0025550D0084
:105E3C000000000045420D00A1460D00E9460D0092
:105E4C00FD480D00C5490D00D5490D00FD490D005B
:105E5C0099540D0005560D000000000000000000D4
:045E6C000000000032
:045E7000000000002E
:105E74000A000000045D0D00D0E6032000000000CD
:105E8400000000000000000000000000000000000E
:105E940000000000000000000000000000000000FE
:105EA40000000000000000000000000000000000EE
:105EB40000000000000000000000000000000000DE
:105EC40000000000000000000000000000000000CE
:0C5ED400000000000000000000000000C2
:105EE000FFFFFFFF00000102030405060708090A7F
:105EF0000B0C0D0E0F101112131415161718191A7A
:085F00001B1C1D1E1F202800C0
:045F08007856341281
:04000003D000401CCD
:00000001FF
